:020000040000FA
:020000000528D1
:08000800062983163230850041
:1000100022309F009901D830810083128501093078
:100020009F0007309900251403308A000A30A6008B
:10003000A8000230AC00AD00AA010230AB00A51050
:10004000F030B4008B17A51343104430B500B60050
:10005000A5112511C3104311A5162030C400C312E9
:100060004312851943160621BF010630C5004630EC
:10007000F222C50B3728F930BD00BE00431E4528CB
:100080000030BF003D08FD22BD000430BF003E0827
:10009000FD22BE002523A516A5110230BF00543055
:1000A000F2224630F222A51D5328A5112511A514D0
:1000B0002A232708F83EA3001030A2004313B11BE7
:1000C000431743140230BF004630F2224630F2227A
:1000D000C3186D284319942868282523C3100030BD
:1000E000BF003D08FD22BD00C31D4B280230BF00EC
:1000F0005B30F2227A28431E4B28A51225110230CC
:10010000BF004630F2224D30F222251D85282511F0
:10011000A511A5142A232908F83EA3005130A200F6
:100120004313B01B43176128252343110430BF003C
:100130003E08FD22BE00C31D7B280330BF005B309C
:10014000F222A1280330A000A7280000A728ED2054
:10015000A00BA5282730A000AF280000AF28FD285D
:10016000A00BAD280730A000B7280000B7286722F1
:10017000A00BB5280130A000BF280000BF288721B0
:10018000A00BBD280630A000C7280000C7281029F2
:10019000A00BC5280530A000CF280000CF283121B2
:1001A000A00BCD286C30A000D7280000D728422112
:1001B000A00BD5280530A000DF280000DF28312162
:1001C000A00BDD281630A000E7280000E728F82063
:1001D000A00BE5280330A000A72805108316051002
:1001E000831200005930CF22B3220130CF22080001
:1001F000B32200005D30CF220800B322C03081005E
:100200003708830038080B118B160900B800030863
:10021000B70083124330CF2283169B018312B0288C
:10022000B322431C16293A2248221B290000000051
:100230001530CF2215292208B3002308B200431C31
:1002400024293A2248222929000000001530CF2213
:1002500023292208B3002308B200D3222630CF225C
:10026000C828B3220F30CF228316051083124530E1
:10027000CF22831605148312A4010000000003306E
:10028000CF220800B3220E30CF228316A603260801
:10029000F039031D4C290510000000000000051472
:1002A0008316000000001530CF22D4228316251CAF
:1002B0005A29241D5C2905100000051483161E30E0
:1002C000CF2200008316A80328083405031D6929DE
:1002D0000510000000000000051483160830CF222E
:1002E000B322A40AB2033208FC39031D842933085F
:1002F000CF2283160510D322051483123308000081
:100300000000563CCF2208005B30CF220800B32209
:1003100083163730850026309F0083121230CF229B
:100320009F1483163330850022309F0083122030C3
:10033000CF222708A6001E08FF3A031DA6292C0875
:100340000319B329AC0BB429A515B5290230AC00AB
:100350002E081E02B1001E08AE0003101E0C103E37
:10036000A600A700B929B429B5290000B729B829E2
:10037000B9292030CF22B32205309F001230CF227E
:100380009F142030CF2209309F002908A8001E08A2
:10039000FF3A031DD2292D080319DF29AD0BE029EF
:1003A0002515E1290230AD002F081E02B0001E08FD
:1003B000AF0003101E0C103EA800A900E529E0299B
:1003C000E1290000E329E429E52900001C30CF22BF
:1003D0000000431AF0292308083EA800A900F229CA
:1003E000D32200000800251632020F3EA100A11FF3
:1003F000FA2925121230A102A11BFF29251208009B
:10040000A20A2208513A031D0C2A2808F321251EAE
:10041000102AA514A512132A000000000430CF22D0
:100420000000000000002208553A031D1B2AA514F5
:100430004310C3141C2AD3220800A20322080F3A37
:10044000031D292A2608F321251E2D2AA514A516E9
:10045000302A000000000430CF220000000000001D
:1004600022080B3A031D382AA51443104315392AD4
:10047000D3220800B50B452A4408B500A51E422A20
:100480000022442A1D22000008000D30CF22442AF9
:10049000B60B5F2A4408B600251F572A0000A30A9E
:1004A00023086C3A031D632A2513A514662AA303A7
:1004B0002308043A031D632A2517A514662A0000A1
:1004C00000000130CF220000000000000800B3222D
:1004D0001430CF2289220430CF2289220430CF2247
:1004E000892283169B039B039B039B039B039B0314
:1004F00083121030CF22B3221430CF22892204304D
:10050000CF2289220430CF22892200000F30CF224F
:10051000080083161C141A08B9009B0A1C141A0838
:10052000BA009B0A831205148316B90D850DB90D07
:10053000850DB90D850DB90D850DB90D850D000021
:10054000051400000000BA0D850DBA0D850DBA0D19
:10055000850DBA0D850DBA0D850D000005148312A9
:100560000000000008000510831605108312A51C6A
:10057000CD2AAA0BCC2AAB0BC12AA5100230AB00A6
:10058000C52A0511AA1DC52A0515000000008316FD
:100590000514831205140800C12A0000BD2AA10019
:1005A000A10BD02A08000800A51FE52A83164108E0
:1005B0009B0042089A001C1555309D00AA309D00F2
:1005C0009C141C11A513831208000230CF22E42AC8
:1005D000A51BE82AC2003F08C1000630BF07420839
:1005E000A5170800C00040089C23C00AE822013972
:1005F0000319F32A2930BF020800C311BB00BB0A4C
:100600003B080F390A3A031D1B2B3B08F039103EFB
:10061000BB00503A03191A2B3B08BC02BC1B132B1E
:100620003B08BC071B2B3B08BC003C0E0F39812349
:10063000C4001B2BC3153B0E0F399123F2223B083C
:100640000F399123F2223B0808000530A200403008
:10065000A3000800C312851DC3163C0E0F39812369
:04066000C4000800CA
:0E070200C31A8A2B82071234103408340734CD
:1007100006340834820707340634063406340634B7
:1007200006348207003407340E3415341C34233465
:100730002A34313438343F3482078834703460349A
:100740005034303470348934D8349834D834D83470
:10075000D834D834893488347034F034E834D83418
:10076000B83401340034E834D834E834F034703428
:100770008934E834C834A83468340034E834E934BF
:10078000003478340834F034F03470348934C834A8
:10079000B834783408347034703489340034F03428
:1007A000E834D834D834D834D934883470347034F8
:1007B00088347034703489348834703470348034C0
:1007C000F034E8349934F834F834F834F834F83440
:1007D000F834F934B834D834E8340034E834D83450
:1007E000B934E834D834B8340034B834D834E934BF
:0E07F000703470347034503450345034A934A6
:02400E0092110D
:00000001FF
