:1000000000308A001928000026308400831300087D
:10001000031918280130F800F701F70B0D28F80B29
:100020000C284A30F700F70B13281628800B0A28F3
:10003000080003081F39830083168E1507308312CA
:100040009F00831307309F00831605088500033047
:10005000F700F70B292883121F080C13A201863022
:10006000A100A4010630A3002108840083132218F4
:1000700083170008FE3980002308840083132418A6
:1000800083170008013880000230A500FA30A6006E
:100090000420A50B46282308840083132418831703
:1000A0000008FE3980000230A500FA30A6000420C6
:0800B000A50B55283C28630054
:02400E00513F20
:00000001FF
;PIC16F628A
;CRC=8117  CREATED="27-sept.-25 13:56"
