:040000000AEF00F013
:10000800D9CF03F0DACF04F0F7ED14F09AEF15F03A
:10080000809A90B68EB78F80D2D3D4D8D7988E8F57
:10081000909292E299E3EAEB98999A9D9C9D9E9E14
:10082000B5D6E0E9A5A5A6A6A8A9AAABAC21AEAF0E
:10083000B0B1B2B3B4B5B6B7B8B9BABBBCBDBEBF40
:10084000C0C1C2C3C4C5C7C7C8C9CACBCCCDCECF2F
:10085000D0D1D2D3D4D5D6D7D8D9DADBDCDDDEDF20
:10086000E0E1E2E3E5E5E6E7E8E9EAEBDE59EEEFB1
:10087000F0F1F2F3F4F5F6F7F8F9FAFBFCFDFEFF00
:10088000000057C070F058C071F000017151701134
:10089000D8B4120020EE01F07051D9267151DA223D
:1008A000DF50426E42A0120020EE1AF07051D9269D
:1008B0007151DA22DECF42F0DECF43F0DECF44F0DA
:1008C000DECF45F03E50425C3F50435840504458C4
:1008D000415045580EE220EE1AF07051D926715160
:1008E000DA22DECF3EF0DECF3FF0DECF40F0DECFCB
:1008F00041F020EE16F07051D9267151DA22DECF88
:1009000064F0DECF65F0DECF66F0DECF67F020EE7C
:1009100016F07051D9267151DA22DE6ADE6ADE6A7B
:10092000DD6ADD52DD5241503E103F104010D8B418
:10093000120020EE02F07051D9267151DA22DF50F8
:10094000426E42C043F0446A456A466A090ED89036
:100950004336443645364636E82EF9D743C068F06C
:1009600044C069F045C06AF046C06BF0675164113D
:100970006511661101E192D0FF0E3E24056EFF0E57
:100980003F20066EFF0E4020076EFF0E4120086ECE
:1009900068C009F069C00AF06AC00BF06BC00CF0C7
:1009A00034EC15F005C042F006C043F007C044F037
:1009B00008C045F0FF0E6425056EFF0E6521066E2A
:1009C000FF0E6621076EFF0E6721086E68C009F0F2
:1009D00069C00AF06AC00BF06BC00CF034EC15F083
:1009E0000550425C0650435807504458085045583B
:1009F00055E3FF0E6825426EFF0E6921436EFF0E20
:100A00006A21446EFF0E6B21456E421E431E441E3A
:100A1000451EFF0E6425466EFF0E6521476EFF0ED4
:100A20006621486EFF0E6721496E425046144A6E99
:100A3000435047144B6E445048144C6E4550491473
:100A40004D6E20EE16F07051D9267151DA224AC04F
:100A5000DEFF4BC0DEFF4CC0DEFF4DC0DDFFD90620
:100A6000D90620EE16F07051D9267151DA22DE50E7
:100A70003E5EDE503F5ADE50405ADD50415A20EE75
:100A800022F07051D9267151DA22DECF6CF0DECF20
:100A90006DF0DECF6EF0DECF6FF076D020EE1EF080
:100AA0007051D9267151DA22DECF6CF0DECF6DF0B5
:100AB000DECF6EF0DECF6FF020EE22F07051D9263F
:100AC0007151DA226CC0DEFF6DC0DEFF6EC0DEFF4A
:100AD0006FC0DEFF59D06CC022F06DC023F06EC035
:100AE00024F06FC025F02FEC08F022C06CF023C07A
:100AF0006DF024C06EF025C06FF0020E00016C5D39
:100B0000000E6D59000E6E59000E6F5901E2BDD0F6
:100B100020EE06F07051D9267151DA22DECF42F074
:100B2000DECF43F0DECF44F0DECF45F042506C5DC7
:100B300043506D5944506E5945506F5901E3A5D04B
:100B400020EE22F07051D9267151DA226CC0DEFFFE
:100B50006DC0DEFF6EC0DEFF6FC0DEFF20EE16F060
:100B60007051D9267151DA226851DE266951DE2290
:100B70006A51DE226B51DD2268513E5E69513F5A57
:100B80006A51405A6B51415A3E50685D3F50695915
:100B900040506A5941506B599EE320EE16F0705157
:100BA000D9267151DA223E50DE263F50DE224050D7
:100BB000DE224150DD226CC011F06DC012F06EC01B
:100BC00013F06FC014F09DEC14F011C060F012C06F
:100BD00061F013C062F014C063F0635160116111E1
:100BE000621153E020EE02F07051D9267151DA22E1
:100BF000DF50426EFF0E4224436E446AFF0E4422D1
:100C0000456A44BE45064550466E20EE16F07051CA
:100C1000D9267151DA22DECF47F0DECF48F0DECFA1
:100C200049F0DECF4AF00A0E05D0D8904A32493258
:100C300048324732E82EF9D7435047144B6E4450A0
:100C400048144C6E455049144D6E46504A144E6E31
:100C500060514B244F6E61514C20506E62514D20BB
:100C6000516E63514E20526E20EE26F07051D926FF
:100C70007151DA224FC0DEFF50C0DEFF51C0DEFFEF
:100C800052C0DDFFD906D906120020EE01F07051E6
:100C9000D9267151DA22000EDF6E000C576A586AAD
:100CA0002850271001E1000C5BEC10F0296E29B0F0
:100CB000020C00018C6B8D6B8E6B8F6B226A236A2A
:100CC000246A256A600ED8EC13F00001946F940535
:100CD0002DE1000E136E600E126E146A156A166A0C
:100CE000176A010E196EBE0E186E1B6A100E1A6E70
:100CF00073EC13F0000902E0030E16D000016451FA
:100D000015E068C08CF069C08DF06AC08EF06BC0D1
:100D10008FF08CC022F08DC023F08EC024F08FC0E5
:100D200025F0600ED8EC13F00001946F9451030A83
:100D300001E1010C945101E0070C000E136E600EEE
:100D4000126E8CC014F08DC015F08EC016F08FC0DE
:100D500017F0196A0D0E186E1B6A240E1A6E73ECCA
:100D600013F00009E6E1000169C090F06AC091F05B
:100D7000926B936B935190119111921108E177C08E
:100D800090F078C091F079C092F07AC093F06351FE
:100D9000116E126A136A146A900E82EC16F0615199
:100DA0008C25296E62518D212A6E000E8E212B6EAC
:100DB000000E8F212C6E20EE0AF02750D9262850E5
:100DC000DA2229C0DEFF2AC0DEFF2BC0DEFF2CC0E6
:100DD000DDFFD906D90620EE02F02750D92628508B
:100DE000DA2260C0DFFF20EE04F02750D926285019
:100DF000DA2264C0DEFF65C0DDFF66C084F067C034
:100E000085F0866B876B875184118511861108E107
:100E100073C084F074C085F075C086F076C087F02A
:100E200020EE04F02750D9262850DA22DECF29F010
:100E3000DDCF2AF0040E2B6ED8902A3229322B2EC9
:100E4000FBD729502C6E2A502D6E2E6A2F6A6151C5
:100E5000306E6251316E326A336A301E311E321E7C
:100E6000331E302A000E3122322233229051305C60
:100E7000346E91513158356E92513258366E9351CD
:100E80003358376E2C50345C386E2D503558396ECF
:100E90002E5036583A6E2F5037583B6E84513824B6
:100EA000056E85513920066E86513A20076E8751AE
:100EB0003B20086E20EE02F02750D9262850DA2277
:100EC000DF50096E0A6A0B6A0C6A34EC15F0020EE8
:100ED0000524886F000E0620896F000E07208A6F98
:100EE000000E08208B6F20EE06F02750D9262850E0
:100EF000DA2288C0DEFF89C0DEFF8AC0DEFF8BC039
:100F0000DEFF020E946FF70E885D0F0E8959000EFA
:100F10008A59000E8B5902E2010E946FF70E885D1C
:100F2000FF0E8959000E8A59000E8B5902E3030EF9
:100F3000946F27C0D9FF28C0DAFF94C0DFFF945117
:100F4000030A0FE120EE0EF02750D9262850DA22AE
:100F50007FC0DEFF80C0DEFF81C0DEFF82C0DEFF1B
:100F60002AD020EE0AF02750D9262850DA22DECFE8
:100F700029F0DECF2AF0DECF2BF0DECF2CF090511F
:100F800029242D6E91512A202E6E92512B202F6EE6
:100F900093512C20306E20EE0EF02750D926285089
:100FA000DA222DC0DEFF2EC0DEFF2FC0DEFF30C0F4
:100FB000DDFFD906D90620EE0AF02750D9262850A1
:100FC000DA22DECF29F0DECF2AF0DECF2BF0DECF23
:100FD0002CF020EE04F02750D9262850DA22DECF5C
:100FE0002DF0DDCF2EF0040E2F6ED8902E322D3244
:100FF0002F2EFBD72D502924306E2E502A20316EF3
:10100000000E2B20326E000E2C20336E90513024B7
:10101000346E91513120356E92513220366E93519B
:101020003320376E20EE12F02750D9262850DA22CE
:1010300034C0DEFF35C0DEFF36C0DEFF37C0DDFF67
:10104000D906D90620EE01F02750D9262850DA22F9
:10105000000EDF6E27C057F028C058F0000C57C0B4
:101060003CF058C03DF0020E225C000E2358000EEA
:101070002458000E255818E320EE06F03C50D926DF
:101080003D50DA22DECF26F0DECF27F0DECF28F08B
:10109000DECF29F02650225C2750235828502458B0
:1010A0002950255801E279D1010E226E000E236EDF
:1010B000246E256E000C22C03AF023C03BF0D8907D
:1010C0003B30276E3A30266E26503A2627503B2278
:1010D0003A50386E010E3B14396E090E266ED890C8
:1010E0003B323A32262EFBD73828D8B439042FE0C9
:1010F000320E126E000E136E0F0E136E5F0E126420
:10110000136A20EE0AF03C50D9263D50DA22DECF99
:1011100026F0DECF27F0DECF28F0DECF29F03A50E0
:101120002624146E3B502720156E000E2820166EC4
:10113000000E2920176E38C018F039C019F01B6A4C
:10114000020E1A6E73EC13F00009AEE162D0320E9B
:10115000126E000E136E0F0E136E5F0E1264136A82
:1011600020EE0AF03C50D9263D50DA22DECF26F0A0
:10117000DECF27F0DECF28F0DECF29F03A5026244C
:10118000146E3B502720156E000E2820166E000EA0
:101190002920176E010E196E18681B6A1A6E73ECFF
:1011A00013F0000981E1330E126E000E136E0F0E64
:1011B000136E5F0E1264136A20EE0AF03C50D926BB
:1011C0003D50DA22DECF26F0DECF27F0DECF28F04A
:1011D000DECF29F03A5026242A6E3B5027202B6E72
:1011E000000E28202C6E000E29202D6E2A28146E49
:1011F000000E2B20156E000E2C20166E000E2D20DA
:10120000176E196A186A1B6A010E1A6E73EC13F0D6
:101210009BD732C036F033C037F022B006D03650FC
:10122000306E0F0E3714316E0FD036C026F037C037
:1012300027F0040E286ED89027322632282EFBD7AE
:1012400026C030F027C031F030C022F031C023F08A
:10125000246A256A1200320E126E000E136E0F0EF3
:10126000136E5F0E1264136A20EE0AF03C50D9260A
:101270003D50DA22DECF26F0DECF27F0DECF28F099
:10128000DECF29F022C02AF023C02BF024C02CF09E
:1012900025C02DF02BC02AF02CC02BF02DC02CF037
:1012A0002D6A26502A24146E27502B20156E2850A4
:1012B0002C20166E29502D20176E22502E6E2F6A6C
:1012C000D8902E34186E2F34196E1B6A020E1A6EC7
:1012D00073EC13F0000901E0E7D632C022F033C00E
:1012E00023F0246A256A1200320E126E000E136E6D
:1012F0000F0E136E5F0E1264136A20EE0AF03C505C
:10130000D9263D50DA22DECF26F0DECF27F0DECF21
:1013100028F0DECF29F022C02AF023C02BF024C011
:101320002CF025C02DF0080E05D0D8902D322C328F
:101330002B322A32E82EF9D726502A24146E275051
:101340002B20156E28502C20166E29502D20176E3C
:101350007F0E22142E6E2F6AD8902E362F36D890FC
:101360002E362F362EC018F02FC019F01B6A040E2F
:101370001A6E73EC13F0000901E096D620EE32F0FD
:10138000FF0EDE14226EFF0EDE14236EFF0EDE143F
:10139000246E0F0EDE14256E12003CC0D9FF3DC036
:1013A000DAFFDF50010A01E186D6030A01E153D7D3
:1013B000010A9AE079D63EC061F03FC062F057C0A2
:1013C00074F058C075F04250D96EDA6ADE6ADD6A90
:1013D00000017551741101E1060C20EE01F0745109
:1013E000D9267551DA22DF50436E43A0050C20EE5A
:1013F00016F07451D9267551DA22DECF43F0DECFD4
:1014000044F0DECF45F0DECF46F020EE1AF0745106
:10141000D9267551DA22DECF47F0DECF48F0DECF95
:1014200049F0DECF4AF04350475C696F445048585A
:101430006A6F455049586B6F46504A586C6F405020
:10144000436E4150446E456A466A4350695D44505C
:101450006A5945506B5946506C5901E33FD169C0F8
:1014600040F06AC041F03AD120EE16F07451D9260E
:101470007551DA22FF0EDE14436E010EDE14446E47
:10148000000EDE14456E000EDE14466E465043100C
:101490004410451001E0B1D020EE16F07451D92669
:1014A0007551DA22DECF43F0DECF44F0DECF45F0D7
:1014B000DECF46F00A0E05D0D8904632453244328F
:1014C0004332E82EF9D720EE02F07451D926755137
:1014D000DA22DF50476E47044314716F716753D0AF
:1014E00020EE16F07451D9267551DA22DECF43F082
:1014F000DECF44F0DECF45F0DECF46F0465043105D
:101500004410451019E020EE22F07451D92675518F
:10151000DA22DECF22F0DECF23F0DECF24F0DECFE2
:1015200025F02FEC08F022C06DF023C06EF024C02F
:101530006FF025C070F00ED020EE1EF07451D92649
:101540007551DA22DECF6DF0DECF6EF0DECF6FF0B8
:10155000DECF70F0020E00016D5D000E6E59000EC0
:101560006F59000E705901E2BED020EE22F0745186
:10157000D9267551DA226DC0DEFF6EC0DEFF6FC066
:10158000DEFF70C0DEFF20EE22F07451D9267551C7
:10159000DA22DECF11F0DECF12F0DECF13F0DECF95
:1015A00014F09DEC14F011C065F012C066F013C089
:1015B00067F014C068F0685165116611671101E1A8
:1015C00092D071516525436E000E6621446E000E67
:1015D0006721456E000E6821466E20EE26F074519C
:1015E000D9267551DA2243C0DEFF44C0DEFF45C074
:1015F000DEFF46C0DDFFD906D90620EE16F0745195
:10160000D9267551DA22DECF43F0DDCF44F04350C6
:10161000456E010E4414466E45500008726F4650E8
:10162000D8A0E82A0208736F7251405C7351415888
:1016300004E240C072F041C073F03F503E1005E03C
:1016400061C063F062C064F002D0636B646B63C01E
:1016500012F064C013F020EE26F07451D9267551B3
:10166000DA22DECF14F0DECF15F0DECF16F0DECFBB
:1016700017F020EE16F07451D9267551DA22DECF1C
:1016800043F0DDCF44F04350186E010E4414196E40
:1016900072C01AF073C01BF073EC13F00001606F9E
:1016A000605121E120EE16F07451D9267551DA22ED
:1016B0007251DE267351DE22000EDE22DD227251CF
:1016C0006127000E62237251405E7351415A4250AD
:1016D000D96EDA6A7251DE267351DD224150401014
:1016E00001E0C2D6000C20EE01F07451D9267551EC
:1016F000DA22000EDF6E010C0201020E3F6E000EB8
:101700003E6E416A0C0E406E5A0E426EDBEC09F0E2
:10171000000907E0010E536E000E546E556E566EB2
:10172000000C5A500C0A5B100DE102010B51450AE6
:10173000570ED8B40819410ED8B4091
